{
  "contractName": "LocalKittyCore",
  "abi": [
    {
      "constant": false,
      "inputs": [],
      "name": "renounceOwnership",
      "outputs": [],
      "payable": false,
      "stateMutability": "nonpayable",
      "type": "function"
    },
    {
      "constant": true,
      "inputs": [
        {
          "name": "",
          "type": "uint256"
        }
      ],
      "name": "kitties",
      "outputs": [
        {
          "name": "genes",
          "type": "uint256"
        },
        {
          "name": "birthTime",
          "type": "uint64"
        },
        {
          "name": "matronId",
          "type": "uint32"
        },
        {
          "name": "sireId",
          "type": "uint32"
        },
        {
          "name": "generation",
          "type": "uint16"
        }
      ],
      "payable": false,
      "stateMutability": "view",
      "type": "function"
    },
    {
      "constant": true,
      "inputs": [],
      "name": "owner",
      "outputs": [
        {
          "name": "",
          "type": "address"
        }
      ],
      "payable": false,
      "stateMutability": "view",
      "type": "function"
    },
    {
      "constant": true,
      "inputs": [],
      "name": "isOwner",
      "outputs": [
        {
          "name": "",
          "type": "bool"
        }
      ],
      "payable": false,
      "stateMutability": "view",
      "type": "function"
    },
    {
      "constant": true,
      "inputs": [
        {
          "name": "",
          "type": "uint256"
        }
      ],
      "name": "kittyIndexToOwner",
      "outputs": [
        {
          "name": "",
          "type": "address"
        }
      ],
      "payable": false,
      "stateMutability": "view",
      "type": "function"
    },
    {
      "constant": false,
      "inputs": [
        {
          "name": "newOwner",
          "type": "address"
        }
      ],
      "name": "transferOwnership",
      "outputs": [],
      "payable": false,
      "stateMutability": "nonpayable",
      "type": "function"
    },
    {
      "inputs": [],
      "payable": false,
      "stateMutability": "nonpayable",
      "type": "constructor"
    },
    {
      "anonymous": false,
      "inputs": [
        {
          "indexed": true,
          "name": "kittyId",
          "type": "uint256"
        },
        {
          "indexed": true,
          "name": "owner",
          "type": "address"
        },
        {
          "indexed": false,
          "name": "genes",
          "type": "uint256"
        },
        {
          "indexed": false,
          "name": "matronId",
          "type": "uint256"
        },
        {
          "indexed": false,
          "name": "sireId",
          "type": "uint256"
        },
        {
          "indexed": false,
          "name": "generation",
          "type": "uint256"
        }
      ],
      "name": "KittyCreated",
      "type": "event"
    },
    {
      "anonymous": false,
      "inputs": [
        {
          "indexed": true,
          "name": "previousOwner",
          "type": "address"
        },
        {
          "indexed": true,
          "name": "newOwner",
          "type": "address"
        }
      ],
      "name": "OwnershipTransferred",
      "type": "event"
    },
    {
      "constant": false,
      "inputs": [
        {
          "name": "_genes",
          "type": "uint256"
        }
      ],
      "name": "createKittyGen0",
      "outputs": [
        {
          "name": "",
          "type": "uint256"
        }
      ],
      "payable": false,
      "stateMutability": "nonpayable",
      "type": "function"
    },
    {
      "constant": true,
      "inputs": [
        {
          "name": "_id",
          "type": "uint256"
        }
      ],
      "name": "getKitty",
      "outputs": [
        {
          "name": "isGestating",
          "type": "bool"
        },
        {
          "name": "isReady",
          "type": "bool"
        },
        {
          "name": "cooldownIndex",
          "type": "uint256"
        },
        {
          "name": "nextActionAt",
          "type": "uint256"
        },
        {
          "name": "siringWithId",
          "type": "uint256"
        },
        {
          "name": "birthTime",
          "type": "uint256"
        },
        {
          "name": "matronId",
          "type": "uint256"
        },
        {
          "name": "sireId",
          "type": "uint256"
        },
        {
          "name": "generation",
          "type": "uint256"
        },
        {
          "name": "genes",
          "type": "uint256"
        }
      ],
      "payable": false,
      "stateMutability": "view",
      "type": "function"
    },
    {
      "constant": true,
      "inputs": [],
      "name": "totalSupply",
      "outputs": [
        {
          "name": "",
          "type": "uint256"
        }
      ],
      "payable": false,
      "stateMutability": "view",
      "type": "function"
    }
  ],
  "bytecode": "0x608060405234801561001057600080fd5b50336000806101000a81548173ffffffffffffffffffffffffffffffffffffffff021916908373ffffffffffffffffffffffffffffffffffffffff1602179055506000809054906101000a900473ffffffffffffffffffffffffffffffffffffffff1673ffffffffffffffffffffffffffffffffffffffff16600073ffffffffffffffffffffffffffffffffffffffff167f8be0079c531659141344cd1fd0a4f28419497f9722a3daafe3b4186f6b6457e060405160405180910390a36100ec60008060008060006100f2640100000000026401000000009004565b50610331565b60006100fc6102e7565b600060a0604051908101604052808981526020014267ffffffffffffffff1681526020018763ffffffff1681526020018663ffffffff1681526020018861ffff16815250915060018083908060018154018082558091505090600182039060005260206000209060020201600090919290919091506000820151816000015560208201518160010160006101000a81548167ffffffffffffffff021916908367ffffffffffffffff16021790555060408201518160010160086101000a81548163ffffffff021916908363ffffffff160217905550606082015181600101600c6101000a81548163ffffffff021916908363ffffffff16021790555060808201518160010160106101000a81548161ffff021916908361ffff1602179055505050039050836002600083815260200190815260200160002060006101000a81548173ffffffffffffffffffffffffffffffffffffffff021916908373ffffffffffffffffffffffffffffffffffffffff1602179055508373ffffffffffffffffffffffffffffffffffffffff16817f97e9f3156121d0a13b2f91600cb10b4fea529bd241455f7b31c9a90a2a67b14b8a89898c6040518085815260200184815260200183815260200182815260200194505050505060405180910390a3809250505095945050505050565b60a06040519081016040528060008152602001600067ffffffffffffffff168152602001600063ffffffff168152602001600063ffffffff168152602001600061ffff1681525090565b610a1c806103406000396000f300608060405260043610610099576000357c0100000000000000000000000000000000000000000000000000000000900463ffffffff16806318160ddd1461009e578063715018a6146100c95780638cc51eda146100e05780638da5cb5b146101715780638f32d59b146101c8578063a45f4bfc146101f7578063d5a776ca14610264578063e98b7f4d146102a5578063f2fde38b1461032d575b600080fd5b3480156100aa57600080fd5b506100b3610370565b6040518082815260200191505060405180910390f35b3480156100d557600080fd5b506100de61037d565b005b3480156100ec57600080fd5b5061010b6004803603810190808035906020019092919050505061044f565b604051808681526020018567ffffffffffffffff1667ffffffffffffffff1681526020018463ffffffff1663ffffffff1681526020018363ffffffff1663ffffffff1681526020018261ffff1661ffff1681526020019550505050505060405180910390f35b34801561017d57600080fd5b506101866104d6565b604051808273ffffffffffffffffffffffffffffffffffffffff1673ffffffffffffffffffffffffffffffffffffffff16815260200191505060405180910390f35b3480156101d457600080fd5b506101dd6104ff565b604051808215151515815260200191505060405180910390f35b34801561020357600080fd5b5061022260048036038101908080359060200190929190505050610556565b604051808273ffffffffffffffffffffffffffffffffffffffff1673ffffffffffffffffffffffffffffffffffffffff16815260200191505060405180910390f35b34801561027057600080fd5b5061028f60048036038101908080359060200190929190505050610589565b6040518082815260200191505060405180910390f35b3480156102b157600080fd5b506102d0600480360381019080803590602001909291905050506105b4565b604051808b1515151581526020018a1515151581526020018981526020018881526020018781526020018681526020018581526020018481526020018381526020018281526020019a505050505050505050505060405180910390f35b34801561033957600080fd5b5061036e600480360381019080803573ffffffffffffffffffffffffffffffffffffffff169060200190929190505050610698565b005b6000600180549050905090565b6103856104ff565b151561039057600080fd5b600073ffffffffffffffffffffffffffffffffffffffff166000809054906101000a900473ffffffffffffffffffffffffffffffffffffffff1673ffffffffffffffffffffffffffffffffffffffff167f8be0079c531659141344cd1fd0a4f28419497f9722a3daafe3b4186f6b6457e060405160405180910390a360008060006101000a81548173ffffffffffffffffffffffffffffffffffffffff021916908373ffffffffffffffffffffffffffffffffffffffff160217905550565b60018181548110151561045e57fe5b90600052602060002090600202016000915090508060000154908060010160009054906101000a900467ffffffffffffffff16908060010160089054906101000a900463ffffffff169080600101600c9054906101000a900463ffffffff16908060010160109054906101000a900461ffff16905085565b60008060009054906101000a900473ffffffffffffffffffffffffffffffffffffffff16905090565b60008060009054906101000a900473ffffffffffffffffffffffffffffffffffffffff1673ffffffffffffffffffffffffffffffffffffffff163373ffffffffffffffffffffffffffffffffffffffff1614905090565b60026020528060005260406000206000915054906101000a900473ffffffffffffffffffffffffffffffffffffffff1681565b60006105936104ff565b151561059e57600080fd5b6105ad826000806000336106b7565b9050919050565b60008060008060008060008060008060006001805490508c1015156105d857600080fd5b60018c8154811015156105e757fe5b9060005260206000209060020201905060009a50600199506000985060009750600096508060010160009054906101000a900467ffffffffffffffff1667ffffffffffffffff1695508060010160089054906101000a900463ffffffff1663ffffffff16945080600101600c9054906101000a900463ffffffff1663ffffffff1693508060010160109054906101000a900461ffff1661ffff16925080600001549150509193959799509193959799565b6106a06104ff565b15156106ab57600080fd5b6106b4816108ac565b50565b60006106c16109a6565b600060a0604051908101604052808981526020014267ffffffffffffffff1681526020018763ffffffff1681526020018663ffffffff1681526020018861ffff16815250915060018083908060018154018082558091505090600182039060005260206000209060020201600090919290919091506000820151816000015560208201518160010160006101000a81548167ffffffffffffffff021916908367ffffffffffffffff16021790555060408201518160010160086101000a81548163ffffffff021916908363ffffffff160217905550606082015181600101600c6101000a81548163ffffffff021916908363ffffffff16021790555060808201518160010160106101000a81548161ffff021916908361ffff1602179055505050039050836002600083815260200190815260200160002060006101000a81548173ffffffffffffffffffffffffffffffffffffffff021916908373ffffffffffffffffffffffffffffffffffffffff1602179055508373ffffffffffffffffffffffffffffffffffffffff16817f97e9f3156121d0a13b2f91600cb10b4fea529bd241455f7b31c9a90a2a67b14b8a89898c6040518085815260200184815260200183815260200182815260200194505050505060405180910390a3809250505095945050505050565b600073ffffffffffffffffffffffffffffffffffffffff168173ffffffffffffffffffffffffffffffffffffffff16141515156108e857600080fd5b8073ffffffffffffffffffffffffffffffffffffffff166000809054906101000a900473ffffffffffffffffffffffffffffffffffffffff1673ffffffffffffffffffffffffffffffffffffffff167f8be0079c531659141344cd1fd0a4f28419497f9722a3daafe3b4186f6b6457e060405160405180910390a3806000806101000a81548173ffffffffffffffffffffffffffffffffffffffff021916908373ffffffffffffffffffffffffffffffffffffffff16021790555050565b60a06040519081016040528060008152602001600067ffffffffffffffff168152602001600063ffffffff168152602001600063ffffffff168152602001600061ffff16815250905600a165627a7a723058200db61c8af1c04dbe0f7dc1c2ad89ccfc64f01366c22730e46afdeb145ed25e110029",
  "source": "pragma solidity ^0.4.25;\r\n\r\nimport \"./ownable.sol\";\r\n\r\n/**\r\n * @title LocalKittyCore\r\n * @dev Simple local CryptoKitties-style contract implementing the KittyInterface\r\n *      expected by the CryptoZombies tutorial. Used so zombies can \"feed on\"\r\n *      kitties without relying on the real CryptoKitties contract.\r\n */\r\ncontract LocalKittyCore is Ownable {\r\n\r\n  struct Kitty {\r\n    uint256 genes;\r\n    uint64 birthTime;\r\n    uint32 matronId;\r\n    uint32 sireId;\r\n    uint16 generation;\r\n  }\r\n\r\n  Kitty[] public kitties;\r\n\r\n  mapping (uint256 => address) public kittyIndexToOwner;\r\n\r\n  event KittyCreated(\r\n    uint256 indexed kittyId,\r\n    address indexed owner,\r\n    uint256 genes,\r\n    uint256 matronId,\r\n    uint256 sireId,\r\n    uint256 generation\r\n  );\r\n\r\n  constructor() public {\r\n    // Optional dummy kitty at index 0 so real IDs can start from 1 if desired.\r\n    _createKitty(0, 0, 0, 0, address(0));\r\n  }\r\n\r\n  function _createKitty(\r\n    uint256 _genes,\r\n    uint256 _generation,\r\n    uint256 _matronId,\r\n    uint256 _sireId,\r\n    address _owner\r\n  )\r\n    internal\r\n    returns (uint256)\r\n  {\r\n    Kitty memory kitty = Kitty({\r\n      genes: _genes,\r\n      birthTime: uint64(now),\r\n      matronId: uint32(_matronId),\r\n      sireId: uint32(_sireId),\r\n      generation: uint16(_generation)\r\n    });\r\n\r\n    uint256 newKittyId = kitties.push(kitty) - 1;\r\n    kittyIndexToOwner[newKittyId] = _owner;\r\n\r\n    emit KittyCreated(\r\n      newKittyId,\r\n      _owner,\r\n      _genes,\r\n      _matronId,\r\n      _sireId,\r\n      _generation\r\n    );\r\n\r\n    return newKittyId;\r\n  }\r\n\r\n  /**\r\n   * @dev Public function for the contract owner to create Generation 0 kitties.\r\n   *      You can call this from Remix or another script to seed the system.\r\n   */\r\n  function createKittyGen0(uint256 _genes)\r\n    external\r\n    onlyOwner\r\n    returns (uint256)\r\n  {\r\n    return _createKitty(_genes, 0, 0, 0, msg.sender);\r\n  }\r\n\r\n  /**\r\n   * @dev This matches the KittyInterface.getKitty(...) signature used in\r\n   *      `zombiefeeding.sol`. Only a subset of the fields are meaningful for\r\n   *      our use case; others are returned as simple defaults.\r\n   */\r\n  function getKitty(uint256 _id)\r\n    external\r\n    view\r\n    returns (\r\n      bool isGestating,\r\n      bool isReady,\r\n      uint256 cooldownIndex,\r\n      uint256 nextActionAt,\r\n      uint256 siringWithId,\r\n      uint256 birthTime,\r\n      uint256 matronId,\r\n      uint256 sireId,\r\n      uint256 generation,\r\n      uint256 genes\r\n    )\r\n  {\r\n    require(_id < kitties.length);\r\n\r\n    Kitty storage kitty = kitties[_id];\r\n\r\n    // For CryptoZombies, only `genes` really matters; other values\r\n    // are provided as simple defaults.\r\n    isGestating = false;\r\n    isReady = true;\r\n    cooldownIndex = 0;\r\n    nextActionAt = 0;\r\n    siringWithId = 0;\r\n    birthTime = kitty.birthTime;\r\n    matronId = kitty.matronId;\r\n    sireId = kitty.sireId;\r\n    generation = kitty.generation;\r\n    genes = kitty.genes;\r\n  }\r\n\r\n  function totalSupply() external view returns (uint256) {\r\n    return kitties.length;\r\n  }\r\n}\r\n\r\n",
  "sourcePath": "C:\\Users\\ASHOK\\Desktop\\dapp\\contracts\\LocalKittyCore.sol",
  "compiler": {
    "name": "solc",
    "version": "0.4.25+commit.59dbf8f1.Emscripten.clang"
  },
  "schemaVersion": "3.4.4",
  "updatedAt": "2026-03-16T05:46:59.243Z",
  "networkType": "ethereum",
  "devdoc": {
    "methods": {
      "createKittyGen0(uint256)": {
        "details": "Public function for the contract owner to create Generation 0 kitties.\r     You can call this from Remix or another script to seed the system.\r"
      },
      "getKitty(uint256)": {
        "details": "This matches the KittyInterface.getKitty(...) signature used in\r     `zombiefeeding.sol`. Only a subset of the fields are meaningful for\r     our use case; others are returned as simple defaults.\r"
      },
      "isOwner()": {
        "return": "true if `msg.sender` is the owner of the contract.\r"
      },
      "owner()": {
        "return": "the address of the owner.\r"
      },
      "renounceOwnership()": {
        "details": "Allows the current owner to relinquish control of the contract.\r"
      },
      "transferOwnership(address)": {
        "details": "Allows the current owner to transfer control of the contract to a newOwner.\r",
        "params": {
          "newOwner": "The address to transfer ownership to.\r"
        }
      }
    },
    "title": "LocalKittyCore\r"
  },
  "userdoc": {
    "methods": {
      "renounceOwnership()": {
        "notice": "Renouncing to ownership will leave the contract without an owner.\r It will not be possible to call the functions with the `onlyOwner`\r modifier anymore.\r"
      }
    }
  }
}