{
  "contractName": "ZombieAttack",
  "abi": [
    {
      "constant": true,
      "inputs": [
        {
          "name": "",
          "type": "address"
        }
      ],
      "name": "ownerZombieCount",
      "outputs": [
        {
          "name": "",
          "type": "uint256"
        }
      ],
      "payable": false,
      "stateMutability": "view",
      "type": "function"
    },
    {
      "constant": false,
      "inputs": [
        {
          "name": "_zombieId",
          "type": "uint256"
        }
      ],
      "name": "levelUp",
      "outputs": [],
      "payable": true,
      "stateMutability": "payable",
      "type": "function"
    },
    {
      "constant": false,
      "inputs": [
        {
          "name": "_zombieId",
          "type": "uint256"
        },
        {
          "name": "_kittyId",
          "type": "uint256"
        }
      ],
      "name": "feedOnKitty",
      "outputs": [],
      "payable": false,
      "stateMutability": "nonpayable",
      "type": "function"
    },
    {
      "constant": true,
      "inputs": [
        {
          "name": "",
          "type": "uint256"
        }
      ],
      "name": "zombies",
      "outputs": [
        {
          "name": "name",
          "type": "string"
        },
        {
          "name": "dna",
          "type": "uint256"
        },
        {
          "name": "level",
          "type": "uint32"
        },
        {
          "name": "readyTime",
          "type": "uint32"
        },
        {
          "name": "winCount",
          "type": "uint16"
        },
        {
          "name": "lossCount",
          "type": "uint16"
        }
      ],
      "payable": false,
      "stateMutability": "view",
      "type": "function"
    },
    {
      "constant": false,
      "inputs": [],
      "name": "withdraw",
      "outputs": [],
      "payable": false,
      "stateMutability": "nonpayable",
      "type": "function"
    },
    {
      "constant": true,
      "inputs": [
        {
          "name": "_owner",
          "type": "address"
        }
      ],
      "name": "getZombiesByOwner",
      "outputs": [
        {
          "name": "",
          "type": "uint256[]"
        }
      ],
      "payable": false,
      "stateMutability": "view",
      "type": "function"
    },
    {
      "constant": true,
      "inputs": [
        {
          "name": "",
          "type": "uint256"
        }
      ],
      "name": "zombieToOwner",
      "outputs": [
        {
          "name": "",
          "type": "address"
        }
      ],
      "payable": false,
      "stateMutability": "view",
      "type": "function"
    },
    {
      "constant": false,
      "inputs": [
        {
          "name": "_zombieId",
          "type": "uint256"
        },
        {
          "name": "_newName",
          "type": "string"
        }
      ],
      "name": "renameZombie",
      "outputs": [],
      "payable": false,
      "stateMutability": "nonpayable",
      "type": "function"
    },
    {
      "constant": false,
      "inputs": [
        {
          "name": "_address",
          "type": "address"
        }
      ],
      "name": "setKittyContractAddress",
      "outputs": [],
      "payable": false,
      "stateMutability": "nonpayable",
      "type": "function"
    },
    {
      "constant": false,
      "inputs": [
        {
          "name": "_zombieId",
          "type": "uint256"
        },
        {
          "name": "_newDna",
          "type": "uint256"
        }
      ],
      "name": "changeDna",
      "outputs": [],
      "payable": false,
      "stateMutability": "nonpayable",
      "type": "function"
    },
    {
      "constant": false,
      "inputs": [],
      "name": "renounceOwnership",
      "outputs": [],
      "payable": false,
      "stateMutability": "nonpayable",
      "type": "function"
    },
    {
      "constant": false,
      "inputs": [
        {
          "name": "_name",
          "type": "string"
        }
      ],
      "name": "createRandomZombie",
      "outputs": [],
      "payable": false,
      "stateMutability": "nonpayable",
      "type": "function"
    },
    {
      "constant": true,
      "inputs": [],
      "name": "owner",
      "outputs": [
        {
          "name": "",
          "type": "address"
        }
      ],
      "payable": false,
      "stateMutability": "view",
      "type": "function"
    },
    {
      "constant": true,
      "inputs": [],
      "name": "isOwner",
      "outputs": [
        {
          "name": "",
          "type": "bool"
        }
      ],
      "payable": false,
      "stateMutability": "view",
      "type": "function"
    },
    {
      "constant": false,
      "inputs": [
        {
          "name": "_zombieId",
          "type": "uint256"
        },
        {
          "name": "_newName",
          "type": "string"
        }
      ],
      "name": "changeName",
      "outputs": [],
      "payable": false,
      "stateMutability": "nonpayable",
      "type": "function"
    },
    {
      "constant": false,
      "inputs": [
        {
          "name": "_fee",
          "type": "uint256"
        }
      ],
      "name": "setLevelUpFee",
      "outputs": [],
      "payable": false,
      "stateMutability": "nonpayable",
      "type": "function"
    },
    {
      "constant": false,
      "inputs": [
        {
          "name": "newOwner",
          "type": "address"
        }
      ],
      "name": "transferOwnership",
      "outputs": [],
      "payable": false,
      "stateMutability": "nonpayable",
      "type": "function"
    },
    {
      "anonymous": false,
      "inputs": [
        {
          "indexed": false,
          "name": "zombieId",
          "type": "uint256"
        },
        {
          "indexed": false,
          "name": "name",
          "type": "string"
        },
        {
          "indexed": false,
          "name": "dna",
          "type": "uint256"
        }
      ],
      "name": "NewZombie",
      "type": "event"
    },
    {
      "anonymous": false,
      "inputs": [
        {
          "indexed": false,
          "name": "zombieId",
          "type": "uint256"
        },
        {
          "indexed": false,
          "name": "oldName",
          "type": "string"
        },
        {
          "indexed": false,
          "name": "newName",
          "type": "string"
        }
      ],
      "name": "ZombieRenamed",
      "type": "event"
    },
    {
      "anonymous": false,
      "inputs": [
        {
          "indexed": true,
          "name": "previousOwner",
          "type": "address"
        },
        {
          "indexed": true,
          "name": "newOwner",
          "type": "address"
        }
      ],
      "name": "OwnershipTransferred",
      "type": "event"
    },
    {
      "constant": false,
      "inputs": [
        {
          "name": "_zombieId",
          "type": "uint256"
        },
        {
          "name": "_targetId",
          "type": "uint256"
        }
      ],
      "name": "attack",
      "outputs": [],
      "payable": false,
      "stateMutability": "nonpayable",
      "type": "function"
    }
  ],
  "bytecode": "0x60806040526010600155600154600a0a6002556201518060035566038d7ea4c6800060085560006009556046600a55336000806101000a81548173ffffffffffffffffffffffffffffffffffffffff021916908373ffffffffffffffffffffffffffffffffffffffff1602179055506000809054906101000a900473ffffffffffffffffffffffffffffffffffffffff1673ffffffffffffffffffffffffffffffffffffffff16600073ffffffffffffffffffffffffffffffffffffffff167f8be0079c531659141344cd1fd0a4f28419497f9722a3daafe3b4186f6b6457e060405160405180910390a361206b806100f96000396000f3006080604052600436106100fc576000357c0100000000000000000000000000000000000000000000000000000000900463ffffffff16806301afd7e1146101015780630ce90ec21461015857806317a7f4cc146101785780632052465e146101af5780633ccfd60b146102a05780634412e104146102b7578063528b7b8f1461034f5780635ee88648146103bc5780635f4623f11461042f5780635faf288014610472578063715018a6146104a95780637bff0a01146104c05780638da5cb5b146105295780638f32d59b14610580578063c39cbef1146105af578063ccf670f8146105f4578063e1fa763814610621578063f2fde38b14610658575b600080fd5b34801561010d57600080fd5b50610142600480360381019080803573ffffffffffffffffffffffffffffffffffffffff16906020019092919050505061069b565b6040518082815260200191505060405180910390f35b610176600480360381019080803590602001909291905050506106b3565b005b34801561018457600080fd5b506101ad600480360381019080803590602001909291908035906020019092919050505061074e565b005b3480156101bb57600080fd5b506101da600480360381019080803590602001909291905050506108f7565b60405180806020018781526020018663ffffffff1663ffffffff1681526020018563ffffffff1663ffffffff1681526020018461ffff1661ffff1681526020018361ffff1661ffff168152602001828103825288818151815260200191508051906020019080838360005b83811015610260578082015181840152602081019050610245565b50505050905090810190601f16801561028d5780820380516001836020036101000a031916815260200191505b5097505050505050505060405180910390f35b3480156102ac57600080fd5b506102b5610a16565b005b3480156102c357600080fd5b506102f8600480360381019080803573ffffffffffffffffffffffffffffffffffffffff169060200190929190505050610a96565b6040518080602001828103825283818151815260200191508051906020019060200280838360005b8381101561033b578082015181840152602081019050610320565b505050509050019250505060405180910390f35b34801561035b57600080fd5b5061037a60048036038101908080359060200190929190505050610bc8565b604051808273ffffffffffffffffffffffffffffffffffffffff1673ffffffffffffffffffffffffffffffffffffffff16815260200191505060405180910390f35b3480156103c857600080fd5b5061042d60048036038101908080359060200190929190803590602001908201803590602001908080601f0160208091040260200160405190810160405280939291908181526020018383808284378201915050505050509192919290505050610bfb565b005b34801561043b57600080fd5b50610470600480360381019080803573ffffffffffffffffffffffffffffffffffffffff169060200190929190505050610e95565b005b34801561047e57600080fd5b506104a76004803603810190808035906020019092919080359060200190929190505050610eec565b005b3480156104b557600080fd5b506104be610fce565b005b3480156104cc57600080fd5b50610527600480360381019080803590602001908201803590602001908080601f01602080910402602001604051908101604052809392919081815260200183838082843782019150505050505091929192905050506110a0565b005b34801561053557600080fd5b5061053e6110db565b604051808273ffffffffffffffffffffffffffffffffffffffff1673ffffffffffffffffffffffffffffffffffffffff16815260200191505060405180910390f35b34801561058c57600080fd5b50610595611104565b604051808215151515815260200191505060405180910390f35b3480156105bb57600080fd5b506105f26004803603810190808035906020019092919080359060200190820180359060200191909192939192939050505061115b565b005b34801561060057600080fd5b5061061f60048036038101908080359060200190929190505050611249565b005b34801561062d57600080fd5b506106566004803603810190808035906020019092919080359060200190929190505050611266565b005b34801561066457600080fd5b50610699600480360381019080803573ffffffffffffffffffffffffffffffffffffffff1690602001909291905050506114f9565b005b60066020528060005260406000206000915090505481565b600854341415156106c357600080fd5b61070d60016004838154811015156106d757fe5b906000526020600020906003020160020160009054906101000a900463ffffffff1663ffffffff1661151890919063ffffffff16565b60048281548110151561071c57fe5b906000526020600020906003020160020160006101000a81548163ffffffff021916908363ffffffff16021790555050565b6000600760009054906101000a900473ffffffffffffffffffffffffffffffffffffffff1673ffffffffffffffffffffffffffffffffffffffff1663e98b7f4d836040518263ffffffff167c01000000000000000000000000000000000000000000000000000000000281526004018082815260200191505061014060405180830381600087803b1580156107e257600080fd5b505af11580156107f6573d6000803e3d6000fd5b505050506040513d61014081101561080d57600080fd5b8101908080519060200190929190805190602001909291908051906020019092919080519060200190929190805190602001909291908051906020019092919080519060200190929190805190602001909291908051906020019092919080519060200190929190505050909192939495969798509091929394959697509091929394959650909192939495509091929394509091929350909192509091509050809150506108f283826040805190810160405280600581526020017f6b69747479000000000000000000000000000000000000000000000000000000815250611542565b505050565b60048181548110151561090657fe5b9060005260206000209060030201600091509050806000018054600181600116156101000203166002900480601f0160208091040260200160405190810160405280929190818152602001828054600181600116156101000203166002900480156109b25780601f10610987576101008083540402835291602001916109b2565b820191906000526020600020905b81548152906001019060200180831161099557829003601f168201915b5050505050908060010154908060020160009054906101000a900463ffffffff16908060020160049054906101000a900463ffffffff16908060020160089054906101000a900461ffff169080600201600a9054906101000a900461ffff16905086565b6000610a20611104565b1515610a2b57600080fd5b610a336110db565b90508073ffffffffffffffffffffffffffffffffffffffff166108fc3073ffffffffffffffffffffffffffffffffffffffff16319081150290604051600060405180830381858888f19350505050158015610a92573d6000803e3d6000fd5b5050565b606080600080600660008673ffffffffffffffffffffffffffffffffffffffff1673ffffffffffffffffffffffffffffffffffffffff16815260200190815260200160002054604051908082528060200260200182016040528015610b0a5781602001602082028038833980820191505090505b50925060009150600090505b600480549050811015610bbd578473ffffffffffffffffffffffffffffffffffffffff166005600083815260200190815260200160002060009054906101000a900473ffffffffffffffffffffffffffffffffffffffff1673ffffffffffffffffffffffffffffffffffffffff161415610bb057808383815181101515610b9957fe5b906020019060200201818152505081806001019250505b8080600101915050610b16565b829350505050919050565b60056020528060005260406000206000915054906101000a900473ffffffffffffffffffffffffffffffffffffffff1681565b6060826005600082815260200190815260200160002060009054906101000a900473ffffffffffffffffffffffffffffffffffffffff1673ffffffffffffffffffffffffffffffffffffffff163373ffffffffffffffffffffffffffffffffffffffff16141515610c6b57600080fd5b60048054905084101515610c7e57600080fd5b60008351111515610c8e57600080fd5b600484815481101515610c9d57fe5b90600052602060002090600302016000018054600181600116156101000203166002900480601f016020809104026020016040519081016040528092919081815260200182805460018160011615610100020316600290048015610d425780601f10610d1757610100808354040283529160200191610d42565b820191906000526020600020905b815481529060010190602001808311610d2557829003601f168201915b5050505050915082600485815481101515610d5957fe5b90600052602060002090600302016000019080519060200190610d7d929190611e9a565b507f7cdad40ea6eaa00b0652b10616568d5ec22ab6752fe422381855b56bfcedc24b848385604051808481526020018060200180602001838103835285818151815260200191508051906020019080838360005b83811015610dec578082015181840152602081019050610dd1565b50505050905090810190601f168015610e195780820380516001836020036101000a031916815260200191505b50838103825284818151815260200191508051906020019080838360005b83811015610e52578082015181840152602081019050610e37565b50505050905090810190601f168015610e7f5780820380516001836020036101000a031916815260200191505b509550505050505060405180910390a150505050565b610e9d611104565b1515610ea857600080fd5b80600760006101000a81548173ffffffffffffffffffffffffffffffffffffffff021916908373ffffffffffffffffffffffffffffffffffffffff16021790555050565b60148281600482815481101515610eff57fe5b906000526020600020906003020160020160009054906101000a900463ffffffff1663ffffffff1610151515610f3457600080fd5b836005600082815260200190815260200160002060009054906101000a900473ffffffffffffffffffffffffffffffffffffffff1673ffffffffffffffffffffffffffffffffffffffff163373ffffffffffffffffffffffffffffffffffffffff16141515610fa257600080fd5b83600486815481101515610fb257fe5b9060005260206000209060030201600101819055505050505050565b610fd6611104565b1515610fe157600080fd5b600073ffffffffffffffffffffffffffffffffffffffff166000809054906101000a900473ffffffffffffffffffffffffffffffffffffffff1673ffffffffffffffffffffffffffffffffffffffff167f8be0079c531659141344cd1fd0a4f28419497f9722a3daafe3b4186f6b6457e060405160405180910390a360008060006101000a81548173ffffffffffffffffffffffffffffffffffffffff021916908373ffffffffffffffffffffffffffffffffffffffff160217905550565b60008082511115156110b157600080fd5b6110ba826117ef565b90506064818115156110c857fe5b06810390506110d78282611935565b5050565b60008060009054906101000a900473ffffffffffffffffffffffffffffffffffffffff16905090565b60008060009054906101000a900473ffffffffffffffffffffffffffffffffffffffff1673ffffffffffffffffffffffffffffffffffffffff163373ffffffffffffffffffffffffffffffffffffffff1614905090565b6002838160048281548110151561116e57fe5b906000526020600020906003020160020160009054906101000a900463ffffffff1663ffffffff16101515156111a357600080fd5b846005600082815260200190815260200160002060009054906101000a900473ffffffffffffffffffffffffffffffffffffffff1673ffffffffffffffffffffffffffffffffffffffff163373ffffffffffffffffffffffffffffffffffffffff1614151561121157600080fd5b848460048881548110151561122257fe5b90600052602060002090600302016000019190611240929190611f1a565b50505050505050565b611251611104565b151561125c57600080fd5b8060088190555050565b6000806000846005600082815260200190815260200160002060009054906101000a900473ffffffffffffffffffffffffffffffffffffffff1673ffffffffffffffffffffffffffffffffffffffff163373ffffffffffffffffffffffffffffffffffffffff161415156112d957600080fd5b6004868154811015156112e857fe5b9060005260206000209060030201935060048581548110151561130757fe5b906000526020600020906003020192506113216064611c08565b9150600a54821115156114575761135860018560020160089054906101000a900461ffff1661ffff16611d0b90919063ffffffff16565b8460020160086101000a81548161ffff021916908361ffff1602179055506113a460018560020160009054906101000a900463ffffffff1663ffffffff1661151890919063ffffffff16565b8460020160006101000a81548163ffffffff021916908363ffffffff1602179055506113f0600184600201600a9054906101000a900461ffff1661ffff16611d0b90919063ffffffff16565b83600201600a6101000a81548161ffff021916908361ffff1602179055506114528684600101546040805190810160405280600681526020017f7a6f6d6269650000000000000000000000000000000000000000000000000000815250611542565b6114f1565b611481600185600201600a9054906101000a900461ffff1661ffff16611d0b90919063ffffffff16565b84600201600a6101000a81548161ffff021916908361ffff1602179055506114c960018460020160089054906101000a900461ffff1661ffff16611d0b90919063ffffffff16565b8360020160086101000a81548161ffff021916908361ffff1602179055506114f084611d31565b5b505050505050565b611501611104565b151561150c57600080fd5b61151581611d5b565b50565b60008082840190508363ffffffff168163ffffffff161015151561153857fe5b8091505092915050565b600080846005600082815260200190815260200160002060009054906101000a900473ffffffffffffffffffffffffffffffffffffffff1673ffffffffffffffffffffffffffffffffffffffff163373ffffffffffffffffffffffffffffffffffffffff161415156115b357600080fd5b6004868154811015156115c257fe5b906000526020600020906003020192506115db83611e55565b15156115e657600080fd5b600254858115156115f357fe5b06945060028584600101540181151561160857fe5b04915060405160200180807f6b6974747900000000000000000000000000000000000000000000000000000081525060050190506040516020818303038152906040526040518082805190602001908083835b602083101515611680578051825260208201915060208101905060208303925061165b565b6001836020036101000a038019825116818451168082178552505050505050905001915050604051809103902060001916846040516020018082805190602001908083835b6020831015156116ea57805182526020820191506020810190506020830392506116c5565b6001836020036101000a0380198251168184511680821785525050505050509050019150506040516020818303038152906040526040518082805190602001908083835b602083101515611753578051825260208201915060208101905060208303925061172e565b6001836020036101000a038019825116818451168082178552505050505050905001915050604051809103902060001916141561179f57606360648381151561179857fe5b0683030191505b6117de6040805190810160405280600681526020017f4e6f4e616d65000000000000000000000000000000000000000000000000000081525083611935565b6117e783611d31565b505050505050565b6000808242336004805490506040516020018085805190602001908083835b602083101515611833578051825260208201915060208101905060208303925061180e565b6001836020036101000a0380198251168184511680821785525050505050509050018481526020018373ffffffffffffffffffffffffffffffffffffffff1673ffffffffffffffffffffffffffffffffffffffff166c010000000000000000000000000281526014018281526020019450505050506040516020818303038152906040526040518082805190602001908083835b6020831015156118ec57805182526020820191506020810190506020830392506118c7565b6001836020036101000a03801982511681845116808217855250505050505090500191505060405180910390206001900490506002548181151561192c57fe5b06915050919050565b60006001600460c060405190810160405280868152602001858152602001600163ffffffff168152602001600354420163ffffffff168152602001600061ffff168152602001600061ffff168152509080600181540180825580915050906001820390600052602060002090600302016000909192909190915060008201518160000190805190602001906119cb929190611f9a565b506020820151816001015560408201518160020160006101000a81548163ffffffff021916908363ffffffff16021790555060608201518160020160046101000a81548163ffffffff021916908363ffffffff16021790555060808201518160020160086101000a81548161ffff021916908361ffff16021790555060a082015181600201600a6101000a81548161ffff021916908361ffff1602179055505050039050336005600083815260200190815260200160002060006101000a81548173ffffffffffffffffffffffffffffffffffffffff021916908373ffffffffffffffffffffffffffffffffffffffff160217905550611b146001600660003373ffffffffffffffffffffffffffffffffffffffff1673ffffffffffffffffffffffffffffffffffffffff16815260200190815260200160002054611e7c90919063ffffffff16565b600660003373ffffffffffffffffffffffffffffffffffffffff1673ffffffffffffffffffffffffffffffffffffffff168152602001908152602001600020819055507f88f026aacbbecc90c18411df4b1185fd8d9be2470f1962f192bf84a27d0704b78184846040518084815260200180602001838152602001828103825284818151815260200191508051906020019080838360005b83811015611bc7578082015181840152602081019050611bac565b50505050905090810190601f168015611bf45780820380516001836020036101000a031916815260200191505b5094505050505060405180910390a1505050565b6000611c206001600954611e7c90919063ffffffff16565b600981905550814233600954604051602001808481526020018373ffffffffffffffffffffffffffffffffffffffff1673ffffffffffffffffffffffffffffffffffffffff166c0100000000000000000000000002815260140182815260200193505050506040516020818303038152906040526040518082805190602001908083835b602083101515611cc95780518252602082019150602081019050602083039250611ca4565b6001836020036101000a038019825116818451168082178552505050505050905001915050604051809103902060019004811515611d0357fe5b069050919050565b60008082840190508361ffff168161ffff1610151515611d2757fe5b8091505092915050565b60035442018160020160046101000a81548163ffffffff021916908363ffffffff16021790555050565b600073ffffffffffffffffffffffffffffffffffffffff168173ffffffffffffffffffffffffffffffffffffffff1614151515611d9757600080fd5b8073ffffffffffffffffffffffffffffffffffffffff166000809054906101000a900473ffffffffffffffffffffffffffffffffffffffff1673ffffffffffffffffffffffffffffffffffffffff167f8be0079c531659141344cd1fd0a4f28419497f9722a3daafe3b4186f6b6457e060405160405180910390a3806000806101000a81548173ffffffffffffffffffffffffffffffffffffffff021916908373ffffffffffffffffffffffffffffffffffffffff16021790555050565b6000428260020160049054906101000a900463ffffffff1663ffffffff1611159050919050565b6000808284019050838110151515611e9057fe5b8091505092915050565b828054600181600116156101000203166002900490600052602060002090601f016020900481019282601f10611edb57805160ff1916838001178555611f09565b82800160010185558215611f09579182015b82811115611f08578251825591602001919060010190611eed565b5b509050611f16919061201a565b5090565b828054600181600116156101000203166002900490600052602060002090601f016020900481019282601f10611f5b57803560ff1916838001178555611f89565b82800160010185558215611f89579182015b82811115611f88578235825591602001919060010190611f6d565b5b509050611f96919061201a565b5090565b828054600181600116156101000203166002900490600052602060002090601f016020900481019282601f10611fdb57805160ff1916838001178555612009565b82800160010185558215612009579182015b82811115612008578251825591602001919060010190611fed565b5b509050612016919061201a565b5090565b61203c91905b80821115612038576000816000905550600101612020565b5090565b905600a165627a7a72305820c58eaa3906c3ba56c0181f3fb0e1b620de2ccc58f94d30c421405589599cee1e0029",
  "source": "pragma solidity ^0.4.25;\r\n\r\nimport \"./zombiehelper.sol\";\r\n\r\ncontract ZombieAttack is ZombieHelper {\r\n  uint randNonce = 0;\r\n  uint attackVictoryProbability = 70;\r\n\r\n  function randMod(uint _modulus) internal returns(uint) {\r\n    randNonce = randNonce.add(1);\r\n    return uint(keccak256(abi.encodePacked(now, msg.sender, randNonce))) % _modulus;\r\n  }\r\n\r\n  function attack(uint _zombieId, uint _targetId) external onlyOwnerOf(_zombieId) {\r\n    Zombie storage myZombie = zombies[_zombieId];\r\n    Zombie storage enemyZombie = zombies[_targetId];\r\n    uint rand = randMod(100);\r\n    if (rand <= attackVictoryProbability) {\r\n      myZombie.winCount = myZombie.winCount.add(1);\r\n      myZombie.level = myZombie.level.add(1);\r\n      enemyZombie.lossCount = enemyZombie.lossCount.add(1);\r\n      feedAndMultiply(_zombieId, enemyZombie.dna, \"zombie\");\r\n    } else {\r\n      myZombie.lossCount = myZombie.lossCount.add(1);\r\n      enemyZombie.winCount = enemyZombie.winCount.add(1);\r\n      _triggerCooldown(myZombie);\r\n    }\r\n  }\r\n}\r\n",
  "sourcePath": "C:\\Users\\ASHOK\\Desktop\\dapp\\contracts\\zombieattack.sol",
  "compiler": {
    "name": "solc",
    "version": "0.4.25+commit.59dbf8f1.Emscripten.clang"
  },
  "schemaVersion": "3.4.4",
  "updatedAt": "2026-03-16T05:46:58.104Z",
  "devdoc": {
    "methods": {
      "isOwner()": {
        "return": "true if `msg.sender` is the owner of the contract.\r"
      },
      "owner()": {
        "return": "the address of the owner.\r"
      },
      "renounceOwnership()": {
        "details": "Allows the current owner to relinquish control of the contract.\r"
      },
      "transferOwnership(address)": {
        "details": "Allows the current owner to transfer control of the contract to a newOwner.\r",
        "params": {
          "newOwner": "The address to transfer ownership to.\r"
        }
      }
    }
  },
  "userdoc": {
    "methods": {
      "renounceOwnership()": {
        "notice": "Renouncing to ownership will leave the contract without an owner.\r It will not be possible to call the functions with the `onlyOwner`\r modifier anymore.\r"
      }
    }
  }
}