{
  "contractName": "ZombieMarketplace",
  "abi": [
    {
      "constant": true,
      "inputs": [],
      "name": "zombieContract",
      "outputs": [
        {
          "name": "",
          "type": "address"
        }
      ],
      "payable": false,
      "stateMutability": "view",
      "type": "function"
    },
    {
      "constant": false,
      "inputs": [],
      "name": "renounceOwnership",
      "outputs": [],
      "payable": false,
      "stateMutability": "nonpayable",
      "type": "function"
    },
    {
      "constant": true,
      "inputs": [],
      "name": "owner",
      "outputs": [
        {
          "name": "",
          "type": "address"
        }
      ],
      "payable": false,
      "stateMutability": "view",
      "type": "function"
    },
    {
      "constant": true,
      "inputs": [],
      "name": "isOwner",
      "outputs": [
        {
          "name": "",
          "type": "bool"
        }
      ],
      "payable": false,
      "stateMutability": "view",
      "type": "function"
    },
    {
      "constant": true,
      "inputs": [
        {
          "name": "",
          "type": "uint256"
        }
      ],
      "name": "listings",
      "outputs": [
        {
          "name": "seller",
          "type": "address"
        },
        {
          "name": "price",
          "type": "uint256"
        }
      ],
      "payable": false,
      "stateMutability": "view",
      "type": "function"
    },
    {
      "constant": false,
      "inputs": [
        {
          "name": "newOwner",
          "type": "address"
        }
      ],
      "name": "transferOwnership",
      "outputs": [],
      "payable": false,
      "stateMutability": "nonpayable",
      "type": "function"
    },
    {
      "inputs": [
        {
          "name": "_zombieContract",
          "type": "address"
        }
      ],
      "payable": false,
      "stateMutability": "nonpayable",
      "type": "constructor"
    },
    {
      "anonymous": false,
      "inputs": [
        {
          "indexed": true,
          "name": "zombieId",
          "type": "uint256"
        },
        {
          "indexed": true,
          "name": "seller",
          "type": "address"
        },
        {
          "indexed": false,
          "name": "price",
          "type": "uint256"
        }
      ],
      "name": "Listed",
      "type": "event"
    },
    {
      "anonymous": false,
      "inputs": [
        {
          "indexed": true,
          "name": "zombieId",
          "type": "uint256"
        },
        {
          "indexed": true,
          "name": "seller",
          "type": "address"
        }
      ],
      "name": "Delisted",
      "type": "event"
    },
    {
      "anonymous": false,
      "inputs": [
        {
          "indexed": true,
          "name": "zombieId",
          "type": "uint256"
        },
        {
          "indexed": true,
          "name": "seller",
          "type": "address"
        },
        {
          "indexed": true,
          "name": "buyer",
          "type": "address"
        },
        {
          "indexed": false,
          "name": "price",
          "type": "uint256"
        }
      ],
      "name": "Sold",
      "type": "event"
    },
    {
      "anonymous": false,
      "inputs": [
        {
          "indexed": true,
          "name": "previousOwner",
          "type": "address"
        },
        {
          "indexed": true,
          "name": "newOwner",
          "type": "address"
        }
      ],
      "name": "OwnershipTransferred",
      "type": "event"
    },
    {
      "constant": false,
      "inputs": [
        {
          "name": "_zombieContract",
          "type": "address"
        }
      ],
      "name": "setZombieContract",
      "outputs": [],
      "payable": false,
      "stateMutability": "nonpayable",
      "type": "function"
    },
    {
      "constant": false,
      "inputs": [
        {
          "name": "_zombieId",
          "type": "uint256"
        },
        {
          "name": "_price",
          "type": "uint256"
        }
      ],
      "name": "listZombie",
      "outputs": [],
      "payable": false,
      "stateMutability": "nonpayable",
      "type": "function"
    },
    {
      "constant": false,
      "inputs": [
        {
          "name": "_zombieId",
          "type": "uint256"
        }
      ],
      "name": "cancelListing",
      "outputs": [],
      "payable": false,
      "stateMutability": "nonpayable",
      "type": "function"
    },
    {
      "constant": false,
      "inputs": [
        {
          "name": "_zombieId",
          "type": "uint256"
        }
      ],
      "name": "buyZombie",
      "outputs": [],
      "payable": true,
      "stateMutability": "payable",
      "type": "function"
    }
  ],
  "bytecode": "0x608060405234801561001057600080fd5b5060405160208061107083398101806040528101908080519060200190929190505050336000806101000a81548173ffffffffffffffffffffffffffffffffffffffff021916908373ffffffffffffffffffffffffffffffffffffffff1602179055506000809054906101000a900473ffffffffffffffffffffffffffffffffffffffff1673ffffffffffffffffffffffffffffffffffffffff16600073ffffffffffffffffffffffffffffffffffffffff167f8be0079c531659141344cd1fd0a4f28419497f9722a3daafe3b4186f6b6457e060405160405180910390a3600073ffffffffffffffffffffffffffffffffffffffff168173ffffffffffffffffffffffffffffffffffffffff161415151561012b57600080fd5b80600160006101000a81548173ffffffffffffffffffffffffffffffffffffffff021916908373ffffffffffffffffffffffffffffffffffffffff16021790555050610ef48061017c6000396000f3006080604052600436106100a4576000357c0100000000000000000000000000000000000000000000000000000000900463ffffffff168063138d22ce146100a9578063305a67a814610100578063715018a61461012d5780638da5cb5b146101445780638f32d59b1461019b578063adb4402b146101ca578063b92e2d741461020d578063de74e57b1461022d578063e7f6f15d146102a1578063f2fde38b146102d8575b600080fd5b3480156100b557600080fd5b506100be61031b565b604051808273ffffffffffffffffffffffffffffffffffffffff1673ffffffffffffffffffffffffffffffffffffffff16815260200191505060405180910390f35b34801561010c57600080fd5b5061012b60048036038101908080359060200190929190505050610341565b005b34801561013957600080fd5b506101426105b4565b005b34801561015057600080fd5b50610159610686565b604051808273ffffffffffffffffffffffffffffffffffffffff1673ffffffffffffffffffffffffffffffffffffffff16815260200191505060405180910390f35b3480156101a757600080fd5b506101b06106af565b604051808215151515815260200191505060405180910390f35b3480156101d657600080fd5b5061020b600480360381019080803573ffffffffffffffffffffffffffffffffffffffff169060200190929190505050610706565b005b61022b60048036038101908080359060200190929190505050610799565b005b34801561023957600080fd5b5061025860048036038101908080359060200190929190505050610a5c565b604051808373ffffffffffffffffffffffffffffffffffffffff1673ffffffffffffffffffffffffffffffffffffffff1681526020018281526020019250505060405180910390f35b3480156102ad57600080fd5b506102d66004803603810190808035906020019092919080359060200190929190505050610aa0565b005b3480156102e457600080fd5b50610319600480360381019080803573ffffffffffffffffffffffffffffffffffffffff169060200190929190505050610daf565b005b600160009054906101000a900473ffffffffffffffffffffffffffffffffffffffff1681565b6000600260008381526020019081526020016000209050600073ffffffffffffffffffffffffffffffffffffffff168160000160009054906101000a900473ffffffffffffffffffffffffffffffffffffffff1673ffffffffffffffffffffffffffffffffffffffff16141515156103b857600080fd5b3373ffffffffffffffffffffffffffffffffffffffff168160000160009054906101000a900473ffffffffffffffffffffffffffffffffffffffff1673ffffffffffffffffffffffffffffffffffffffff1614151561041657600080fd5b60026000838152602001908152602001600020600080820160006101000a81549073ffffffffffffffffffffffffffffffffffffffff021916905560018201600090555050600160009054906101000a900473ffffffffffffffffffffffffffffffffffffffff1673ffffffffffffffffffffffffffffffffffffffff166323b872dd3033856040518463ffffffff167c0100000000000000000000000000000000000000000000000000000000028152600401808473ffffffffffffffffffffffffffffffffffffffff1673ffffffffffffffffffffffffffffffffffffffff1681526020018373ffffffffffffffffffffffffffffffffffffffff1673ffffffffffffffffffffffffffffffffffffffff1681526020018281526020019350505050600060405180830381600087803b15801561055457600080fd5b505af1158015610568573d6000803e3d6000fd5b505050503373ffffffffffffffffffffffffffffffffffffffff16827f8e51b30707579d5dafbd56c2b27a7d382dd32fce8afa83687e99daf0ee47f8af60405160405180910390a35050565b6105bc6106af565b15156105c757600080fd5b600073ffffffffffffffffffffffffffffffffffffffff166000809054906101000a900473ffffffffffffffffffffffffffffffffffffffff1673ffffffffffffffffffffffffffffffffffffffff167f8be0079c531659141344cd1fd0a4f28419497f9722a3daafe3b4186f6b6457e060405160405180910390a360008060006101000a81548173ffffffffffffffffffffffffffffffffffffffff021916908373ffffffffffffffffffffffffffffffffffffffff160217905550565b60008060009054906101000a900473ffffffffffffffffffffffffffffffffffffffff16905090565b60008060009054906101000a900473ffffffffffffffffffffffffffffffffffffffff1673ffffffffffffffffffffffffffffffffffffffff163373ffffffffffffffffffffffffffffffffffffffff1614905090565b61070e6106af565b151561071957600080fd5b600073ffffffffffffffffffffffffffffffffffffffff168173ffffffffffffffffffffffffffffffffffffffff161415151561075557600080fd5b80600160006101000a81548173ffffffffffffffffffffffffffffffffffffffff021916908373ffffffffffffffffffffffffffffffffffffffff16021790555050565b6000806000600260008581526020019081526020016000209250600073ffffffffffffffffffffffffffffffffffffffff168360000160009054906101000a900473ffffffffffffffffffffffffffffffffffffffff1673ffffffffffffffffffffffffffffffffffffffff161415151561081357600080fd5b82600101543414151561082557600080fd5b8260000160009054906101000a900473ffffffffffffffffffffffffffffffffffffffff1691508260010154905060026000858152602001908152602001600020600080820160006101000a81549073ffffffffffffffffffffffffffffffffffffffff021916905560018201600090555050600160009054906101000a900473ffffffffffffffffffffffffffffffffffffffff1673ffffffffffffffffffffffffffffffffffffffff166323b872dd3033876040518463ffffffff167c0100000000000000000000000000000000000000000000000000000000028152600401808473ffffffffffffffffffffffffffffffffffffffff1673ffffffffffffffffffffffffffffffffffffffff1681526020018373ffffffffffffffffffffffffffffffffffffffff1673ffffffffffffffffffffffffffffffffffffffff1681526020018281526020019350505050600060405180830381600087803b15801561099157600080fd5b505af11580156109a5573d6000803e3d6000fd5b505050508173ffffffffffffffffffffffffffffffffffffffff166108fc829081150290604051600060405180830381858888f193505050501580156109ef573d6000803e3d6000fd5b503373ffffffffffffffffffffffffffffffffffffffff168273ffffffffffffffffffffffffffffffffffffffff16857f23f50d55776d8003622a982ade45a6c7f083116c8dbbcd980f59942f440badb1846040518082815260200191505060405180910390a450505050565b60026020528060005260406000206000915090508060000160009054906101000a900473ffffffffffffffffffffffffffffffffffffffff16908060010154905082565b60008082111515610ab057600080fd5b600160009054906101000a900473ffffffffffffffffffffffffffffffffffffffff1673ffffffffffffffffffffffffffffffffffffffff16636352211e846040518263ffffffff167c010000000000000000000000000000000000000000000000000000000002815260040180828152602001915050602060405180830381600087803b158015610b4157600080fd5b505af1158015610b55573d6000803e3d6000fd5b505050506040513d6020811015610b6b57600080fd5b810190808051906020019092919050505090503373ffffffffffffffffffffffffffffffffffffffff168173ffffffffffffffffffffffffffffffffffffffff16141515610bb857600080fd5b600160009054906101000a900473ffffffffffffffffffffffffffffffffffffffff1673ffffffffffffffffffffffffffffffffffffffff166323b872dd3330866040518463ffffffff167c0100000000000000000000000000000000000000000000000000000000028152600401808473ffffffffffffffffffffffffffffffffffffffff1673ffffffffffffffffffffffffffffffffffffffff1681526020018373ffffffffffffffffffffffffffffffffffffffff1673ffffffffffffffffffffffffffffffffffffffff1681526020018281526020019350505050600060405180830381600087803b158015610cb157600080fd5b505af1158015610cc5573d6000803e3d6000fd5b5050505060408051908101604052803373ffffffffffffffffffffffffffffffffffffffff168152602001838152506002600085815260200190815260200160002060008201518160000160006101000a81548173ffffffffffffffffffffffffffffffffffffffff021916908373ffffffffffffffffffffffffffffffffffffffff160217905550602082015181600101559050503373ffffffffffffffffffffffffffffffffffffffff16837f50955776c5778c3b7d968d86d8c51fb6b29a7a74c20866b533268e209fc08343846040518082815260200191505060405180910390a3505050565b610db76106af565b1515610dc257600080fd5b610dcb81610dce565b50565b600073ffffffffffffffffffffffffffffffffffffffff168173ffffffffffffffffffffffffffffffffffffffff1614151515610e0a57600080fd5b8073ffffffffffffffffffffffffffffffffffffffff166000809054906101000a900473ffffffffffffffffffffffffffffffffffffffff1673ffffffffffffffffffffffffffffffffffffffff167f8be0079c531659141344cd1fd0a4f28419497f9722a3daafe3b4186f6b6457e060405160405180910390a3806000806101000a81548173ffffffffffffffffffffffffffffffffffffffff021916908373ffffffffffffffffffffffffffffffffffffffff160217905550505600a165627a7a7230582035f7b2c2104b21b5ba89afb88db27f3accae884d1348517453625dada1e29f470029",
  "source": "pragma solidity ^0.4.25;\r\n\r\nimport \"./ownable.sol\";\r\n\r\n/**\r\n * @title Minimal interface to interact with the existing ZombieOwnership ERC721 contract\r\n */\r\ninterface ZombieOwnershipInterface {\r\n  function transferFrom(address _from, address _to, uint256 _tokenId) external payable;\r\n  function ownerOf(uint256 _tokenId) external view returns (address);\r\n}\r\n\r\n/**\r\n * @title ZombieMarketplace\r\n * @dev Simple marketplace to list and buy zombies from the existing\r\n *      `ZombieOwnership` ERC721 contract using ETH.\r\n */\r\ncontract ZombieMarketplace is Ownable {\r\n\r\n  ZombieOwnershipInterface public zombieContract;\r\n\r\n  struct Listing {\r\n    address seller;\r\n    uint256 price; // in wei\r\n  }\r\n\r\n  // tokenId => Listing\r\n  mapping (uint256 => Listing) public listings;\r\n\r\n  event Listed(uint256 indexed zombieId, address indexed seller, uint256 price);\r\n  event Delisted(uint256 indexed zombieId, address indexed seller);\r\n  event Sold(uint256 indexed zombieId, address indexed seller, address indexed buyer, uint256 price);\r\n\r\n  constructor(address _zombieContract) public {\r\n    require(_zombieContract != address(0));\r\n    zombieContract = ZombieOwnershipInterface(_zombieContract);\r\n  }\r\n\r\n  /**\r\n   * @dev Owner can update the underlying ZombieOwnership contract address if needed.\r\n   */\r\n  function setZombieContract(address _zombieContract) external onlyOwner {\r\n    require(_zombieContract != address(0));\r\n    zombieContract = ZombieOwnershipInterface(_zombieContract);\r\n  }\r\n\r\n  /**\r\n   * @dev List a zombie for sale. Caller must be the current owner and must have\r\n   *      approved this marketplace contract to transfer the token.\r\n   */\r\n  function listZombie(uint256 _zombieId, uint256 _price) external {\r\n    require(_price > 0);\r\n    address owner = zombieContract.ownerOf(_zombieId);\r\n    require(owner == msg.sender);\r\n\r\n    // The owner must first call approve(marketplace, _zombieId) on the ZombieOwnership contract.\r\n    // Once approved, the marketplace can transfer the token into escrow.\r\n    zombieContract.transferFrom(msg.sender, address(this), _zombieId);\r\n\r\n    listings[_zombieId] = Listing({\r\n      seller: msg.sender,\r\n      price: _price\r\n    });\r\n\r\n    emit Listed(_zombieId, msg.sender, _price);\r\n  }\r\n\r\n  /**\r\n   * @dev Cancel an existing listing and return the zombie to the seller.\r\n   */\r\n  function cancelListing(uint256 _zombieId) external {\r\n    Listing storage listing = listings[_zombieId];\r\n    require(listing.seller != address(0));\r\n    require(listing.seller == msg.sender);\r\n\r\n    delete listings[_zombieId];\r\n\r\n    // Transfer zombie back to the seller.\r\n    zombieContract.transferFrom(address(this), msg.sender, _zombieId);\r\n\r\n    emit Delisted(_zombieId, msg.sender);\r\n  }\r\n\r\n  /**\r\n   * @dev Buy a listed zombie by paying the exact asking price in ETH.\r\n   */\r\n  function buyZombie(uint256 _zombieId) external payable {\r\n    Listing storage listing = listings[_zombieId];\r\n    require(listing.seller != address(0));\r\n    require(msg.value == listing.price);\r\n\r\n    address seller = listing.seller;\r\n    uint256 price = listing.price;\r\n\r\n    // Clear listing before external calls to prevent re-entrancy issues.\r\n    delete listings[_zombieId];\r\n\r\n    // Transfer zombie from marketplace escrow to buyer.\r\n    zombieContract.transferFrom(address(this), msg.sender, _zombieId);\r\n\r\n    // Pay the seller.\r\n    seller.transfer(price);\r\n\r\n    emit Sold(_zombieId, seller, msg.sender, price);\r\n  }\r\n}\r\n\r\n",
  "sourcePath": "C:\\Users\\ASHOK\\Desktop\\dapp\\contracts\\ZombieMarketplace.sol",
  "compiler": {
    "name": "solc",
    "version": "0.4.25+commit.59dbf8f1.Emscripten.clang"
  },
  "schemaVersion": "3.4.4",
  "updatedAt": "2026-03-16T05:46:59.250Z",
  "networkType": "ethereum",
  "devdoc": {
    "methods": {
      "buyZombie(uint256)": {
        "details": "Buy a listed zombie by paying the exact asking price in ETH.\r"
      },
      "cancelListing(uint256)": {
        "details": "Cancel an existing listing and return the zombie to the seller.\r"
      },
      "isOwner()": {
        "return": "true if `msg.sender` is the owner of the contract.\r"
      },
      "listZombie(uint256,uint256)": {
        "details": "List a zombie for sale. Caller must be the current owner and must have\r     approved this marketplace contract to transfer the token.\r"
      },
      "owner()": {
        "return": "the address of the owner.\r"
      },
      "renounceOwnership()": {
        "details": "Allows the current owner to relinquish control of the contract.\r"
      },
      "setZombieContract(address)": {
        "details": "Owner can update the underlying ZombieOwnership contract address if needed.\r"
      },
      "transferOwnership(address)": {
        "details": "Allows the current owner to transfer control of the contract to a newOwner.\r",
        "params": {
          "newOwner": "The address to transfer ownership to.\r"
        }
      }
    },
    "title": "ZombieMarketplace\r"
  },
  "userdoc": {
    "methods": {
      "renounceOwnership()": {
        "notice": "Renouncing to ownership will leave the contract without an owner.\r It will not be possible to call the functions with the `onlyOwner`\r modifier anymore.\r"
      }
    }
  }
}