{
  "contractName": "ZombieFeeding",
  "abi": [
    {
      "constant": true,
      "inputs": [
        {
          "name": "",
          "type": "address"
        }
      ],
      "name": "ownerZombieCount",
      "outputs": [
        {
          "name": "",
          "type": "uint256"
        }
      ],
      "payable": false,
      "stateMutability": "view",
      "type": "function"
    },
    {
      "constant": true,
      "inputs": [
        {
          "name": "",
          "type": "uint256"
        }
      ],
      "name": "zombies",
      "outputs": [
        {
          "name": "name",
          "type": "string"
        },
        {
          "name": "dna",
          "type": "uint256"
        },
        {
          "name": "level",
          "type": "uint32"
        },
        {
          "name": "readyTime",
          "type": "uint32"
        },
        {
          "name": "winCount",
          "type": "uint16"
        },
        {
          "name": "lossCount",
          "type": "uint16"
        }
      ],
      "payable": false,
      "stateMutability": "view",
      "type": "function"
    },
    {
      "constant": true,
      "inputs": [
        {
          "name": "",
          "type": "uint256"
        }
      ],
      "name": "zombieToOwner",
      "outputs": [
        {
          "name": "",
          "type": "address"
        }
      ],
      "payable": false,
      "stateMutability": "view",
      "type": "function"
    },
    {
      "constant": false,
      "inputs": [
        {
          "name": "_zombieId",
          "type": "uint256"
        },
        {
          "name": "_newName",
          "type": "string"
        }
      ],
      "name": "renameZombie",
      "outputs": [],
      "payable": false,
      "stateMutability": "nonpayable",
      "type": "function"
    },
    {
      "constant": false,
      "inputs": [],
      "name": "renounceOwnership",
      "outputs": [],
      "payable": false,
      "stateMutability": "nonpayable",
      "type": "function"
    },
    {
      "constant": false,
      "inputs": [
        {
          "name": "_name",
          "type": "string"
        }
      ],
      "name": "createRandomZombie",
      "outputs": [],
      "payable": false,
      "stateMutability": "nonpayable",
      "type": "function"
    },
    {
      "constant": true,
      "inputs": [],
      "name": "owner",
      "outputs": [
        {
          "name": "",
          "type": "address"
        }
      ],
      "payable": false,
      "stateMutability": "view",
      "type": "function"
    },
    {
      "constant": true,
      "inputs": [],
      "name": "isOwner",
      "outputs": [
        {
          "name": "",
          "type": "bool"
        }
      ],
      "payable": false,
      "stateMutability": "view",
      "type": "function"
    },
    {
      "constant": false,
      "inputs": [
        {
          "name": "newOwner",
          "type": "address"
        }
      ],
      "name": "transferOwnership",
      "outputs": [],
      "payable": false,
      "stateMutability": "nonpayable",
      "type": "function"
    },
    {
      "anonymous": false,
      "inputs": [
        {
          "indexed": false,
          "name": "zombieId",
          "type": "uint256"
        },
        {
          "indexed": false,
          "name": "name",
          "type": "string"
        },
        {
          "indexed": false,
          "name": "dna",
          "type": "uint256"
        }
      ],
      "name": "NewZombie",
      "type": "event"
    },
    {
      "anonymous": false,
      "inputs": [
        {
          "indexed": false,
          "name": "zombieId",
          "type": "uint256"
        },
        {
          "indexed": false,
          "name": "oldName",
          "type": "string"
        },
        {
          "indexed": false,
          "name": "newName",
          "type": "string"
        }
      ],
      "name": "ZombieRenamed",
      "type": "event"
    },
    {
      "anonymous": false,
      "inputs": [
        {
          "indexed": true,
          "name": "previousOwner",
          "type": "address"
        },
        {
          "indexed": true,
          "name": "newOwner",
          "type": "address"
        }
      ],
      "name": "OwnershipTransferred",
      "type": "event"
    },
    {
      "constant": false,
      "inputs": [
        {
          "name": "_address",
          "type": "address"
        }
      ],
      "name": "setKittyContractAddress",
      "outputs": [],
      "payable": false,
      "stateMutability": "nonpayable",
      "type": "function"
    },
    {
      "constant": false,
      "inputs": [
        {
          "name": "_zombieId",
          "type": "uint256"
        },
        {
          "name": "_kittyId",
          "type": "uint256"
        }
      ],
      "name": "feedOnKitty",
      "outputs": [],
      "payable": false,
      "stateMutability": "nonpayable",
      "type": "function"
    }
  ],
  "bytecode": "0x60806040526010600155600154600a0a60025562015180600355336000806101000a81548173ffffffffffffffffffffffffffffffffffffffff021916908373ffffffffffffffffffffffffffffffffffffffff1602179055506000809054906101000a900473ffffffffffffffffffffffffffffffffffffffff1673ffffffffffffffffffffffffffffffffffffffff16600073ffffffffffffffffffffffffffffffffffffffff167f8be0079c531659141344cd1fd0a4f28419497f9722a3daafe3b4186f6b6457e060405160405180910390a36115cf806100e46000396000f3006080604052600436106100af576000357c0100000000000000000000000000000000000000000000000000000000900463ffffffff16806301afd7e1146100b457806317a7f4cc1461010b5780632052465e14610142578063528b7b8f146102335780635ee88648146102a05780635f4623f114610313578063715018a6146103565780637bff0a011461036d5780638da5cb5b146103d65780638f32d59b1461042d578063f2fde38b1461045c575b600080fd5b3480156100c057600080fd5b506100f5600480360381019080803573ffffffffffffffffffffffffffffffffffffffff16906020019092919050505061049f565b6040518082815260200191505060405180910390f35b34801561011757600080fd5b5061014060048036038101908080359060200190929190803590602001909291905050506104b7565b005b34801561014e57600080fd5b5061016d60048036038101908080359060200190929190505050610660565b60405180806020018781526020018663ffffffff1663ffffffff1681526020018563ffffffff1663ffffffff1681526020018461ffff1661ffff1681526020018361ffff1661ffff168152602001828103825288818151815260200191508051906020019080838360005b838110156101f35780820151818401526020810190506101d8565b50505050905090810190601f1680156102205780820380516001836020036101000a031916815260200191505b5097505050505050505060405180910390f35b34801561023f57600080fd5b5061025e6004803603810190808035906020019092919050505061077f565b604051808273ffffffffffffffffffffffffffffffffffffffff1673ffffffffffffffffffffffffffffffffffffffff16815260200191505060405180910390f35b3480156102ac57600080fd5b5061031160048036038101908080359060200190929190803590602001908201803590602001908080601f01602080910402602001604051908101604052809392919081815260200183838082843782019150505050505091929192905050506107b2565b005b34801561031f57600080fd5b50610354600480360381019080803573ffffffffffffffffffffffffffffffffffffffff169060200190929190505050610a4c565b005b34801561036257600080fd5b5061036b610aa3565b005b34801561037957600080fd5b506103d4600480360381019080803590602001908201803590602001908080601f0160208091040260200160405190810160405280939291908181526020018383808284378201915050505050509192919290505050610b75565b005b3480156103e257600080fd5b506103eb610bb0565b604051808273ffffffffffffffffffffffffffffffffffffffff1673ffffffffffffffffffffffffffffffffffffffff16815260200191505060405180910390f35b34801561043957600080fd5b50610442610bd9565b604051808215151515815260200191505060405180910390f35b34801561046857600080fd5b5061049d600480360381019080803573ffffffffffffffffffffffffffffffffffffffff169060200190929190505050610c30565b005b60066020528060005260406000206000915090505481565b6000600760009054906101000a900473ffffffffffffffffffffffffffffffffffffffff1673ffffffffffffffffffffffffffffffffffffffff1663e98b7f4d836040518263ffffffff167c01000000000000000000000000000000000000000000000000000000000281526004018082815260200191505061014060405180830381600087803b15801561054b57600080fd5b505af115801561055f573d6000803e3d6000fd5b505050506040513d61014081101561057657600080fd5b81019080805190602001909291908051906020019092919080519060200190929190805190602001909291908051906020019092919080519060200190929190805190602001909291908051906020019092919080519060200190929190805190602001909291905050509091929394959697985090919293949596975090919293949596509091929394955090919293945090919293509091925090915090508091505061065b83826040805190810160405280600581526020017f6b69747479000000000000000000000000000000000000000000000000000000815250610c4f565b505050565b60048181548110151561066f57fe5b9060005260206000209060030201600091509050806000018054600181600116156101000203166002900480601f01602080910402602001604051908101604052809291908181526020018280546001816001161561010002031660029004801561071b5780601f106106f05761010080835404028352916020019161071b565b820191906000526020600020905b8154815290600101906020018083116106fe57829003601f168201915b5050505050908060010154908060020160009054906101000a900463ffffffff16908060020160049054906101000a900463ffffffff16908060020160089054906101000a900461ffff169080600201600a9054906101000a900461ffff16905086565b60056020528060005260406000206000915054906101000a900473ffffffffffffffffffffffffffffffffffffffff1681565b6060826005600082815260200190815260200160002060009054906101000a900473ffffffffffffffffffffffffffffffffffffffff1673ffffffffffffffffffffffffffffffffffffffff163373ffffffffffffffffffffffffffffffffffffffff1614151561082257600080fd5b6004805490508410151561083557600080fd5b6000835111151561084557600080fd5b60048481548110151561085457fe5b90600052602060002090600302016000018054600181600116156101000203166002900480601f0160208091040260200160405190810160405280929190818152602001828054600181600116156101000203166002900480156108f95780601f106108ce576101008083540402835291602001916108f9565b820191906000526020600020905b8154815290600101906020018083116108dc57829003601f168201915b505050505091508260048581548110151561091057fe5b9060005260206000209060030201600001908051906020019061093492919061147e565b507f7cdad40ea6eaa00b0652b10616568d5ec22ab6752fe422381855b56bfcedc24b848385604051808481526020018060200180602001838103835285818151815260200191508051906020019080838360005b838110156109a3578082015181840152602081019050610988565b50505050905090810190601f1680156109d05780820380516001836020036101000a031916815260200191505b50838103825284818151815260200191508051906020019080838360005b83811015610a095780820151818401526020810190506109ee565b50505050905090810190601f168015610a365780820380516001836020036101000a031916815260200191505b509550505050505060405180910390a150505050565b610a54610bd9565b1515610a5f57600080fd5b80600760006101000a81548173ffffffffffffffffffffffffffffffffffffffff021916908373ffffffffffffffffffffffffffffffffffffffff16021790555050565b610aab610bd9565b1515610ab657600080fd5b600073ffffffffffffffffffffffffffffffffffffffff166000809054906101000a900473ffffffffffffffffffffffffffffffffffffffff1673ffffffffffffffffffffffffffffffffffffffff167f8be0079c531659141344cd1fd0a4f28419497f9722a3daafe3b4186f6b6457e060405160405180910390a360008060006101000a81548173ffffffffffffffffffffffffffffffffffffffff021916908373ffffffffffffffffffffffffffffffffffffffff160217905550565b6000808251111515610b8657600080fd5b610b8f82610efc565b9050606481811515610b9d57fe5b0681039050610bac8282611042565b5050565b60008060009054906101000a900473ffffffffffffffffffffffffffffffffffffffff16905090565b60008060009054906101000a900473ffffffffffffffffffffffffffffffffffffffff1673ffffffffffffffffffffffffffffffffffffffff163373ffffffffffffffffffffffffffffffffffffffff1614905090565b610c38610bd9565b1515610c4357600080fd5b610c4c81611315565b50565b600080846005600082815260200190815260200160002060009054906101000a900473ffffffffffffffffffffffffffffffffffffffff1673ffffffffffffffffffffffffffffffffffffffff163373ffffffffffffffffffffffffffffffffffffffff16141515610cc057600080fd5b600486815481101515610ccf57fe5b90600052602060002090600302019250610ce88361140f565b1515610cf357600080fd5b60025485811515610d0057fe5b069450600285846001015401811515610d1557fe5b04915060405160200180807f6b6974747900000000000000000000000000000000000000000000000000000081525060050190506040516020818303038152906040526040518082805190602001908083835b602083101515610d8d5780518252602082019150602081019050602083039250610d68565b6001836020036101000a038019825116818451168082178552505050505050905001915050604051809103902060001916846040516020018082805190602001908083835b602083101515610df75780518252602082019150602081019050602083039250610dd2565b6001836020036101000a0380198251168184511680821785525050505050509050019150506040516020818303038152906040526040518082805190602001908083835b602083101515610e605780518252602082019150602081019050602083039250610e3b565b6001836020036101000a0380198251168184511680821785525050505050509050019150506040518091039020600019161415610eac576063606483811515610ea557fe5b0683030191505b610eeb6040805190810160405280600681526020017f4e6f4e616d65000000000000000000000000000000000000000000000000000081525083611042565b610ef483611436565b505050505050565b6000808242336004805490506040516020018085805190602001908083835b602083101515610f405780518252602082019150602081019050602083039250610f1b565b6001836020036101000a0380198251168184511680821785525050505050509050018481526020018373ffffffffffffffffffffffffffffffffffffffff1673ffffffffffffffffffffffffffffffffffffffff166c010000000000000000000000000281526014018281526020019450505050506040516020818303038152906040526040518082805190602001908083835b602083101515610ff95780518252602082019150602081019050602083039250610fd4565b6001836020036101000a03801982511681845116808217855250505050505090500191505060405180910390206001900490506002548181151561103957fe5b06915050919050565b60006001600460c060405190810160405280868152602001858152602001600163ffffffff168152602001600354420163ffffffff168152602001600061ffff168152602001600061ffff168152509080600181540180825580915050906001820390600052602060002090600302016000909192909190915060008201518160000190805190602001906110d89291906114fe565b506020820151816001015560408201518160020160006101000a81548163ffffffff021916908363ffffffff16021790555060608201518160020160046101000a81548163ffffffff021916908363ffffffff16021790555060808201518160020160086101000a81548161ffff021916908361ffff16021790555060a082015181600201600a6101000a81548161ffff021916908361ffff1602179055505050039050336005600083815260200190815260200160002060006101000a81548173ffffffffffffffffffffffffffffffffffffffff021916908373ffffffffffffffffffffffffffffffffffffffff1602179055506112216001600660003373ffffffffffffffffffffffffffffffffffffffff1673ffffffffffffffffffffffffffffffffffffffff1681526020019081526020016000205461146090919063ffffffff16565b600660003373ffffffffffffffffffffffffffffffffffffffff1673ffffffffffffffffffffffffffffffffffffffff168152602001908152602001600020819055507f88f026aacbbecc90c18411df4b1185fd8d9be2470f1962f192bf84a27d0704b78184846040518084815260200180602001838152602001828103825284818151815260200191508051906020019080838360005b838110156112d45780820151818401526020810190506112b9565b50505050905090810190601f1680156113015780820380516001836020036101000a031916815260200191505b5094505050505060405180910390a1505050565b600073ffffffffffffffffffffffffffffffffffffffff168173ffffffffffffffffffffffffffffffffffffffff161415151561135157600080fd5b8073ffffffffffffffffffffffffffffffffffffffff166000809054906101000a900473ffffffffffffffffffffffffffffffffffffffff1673ffffffffffffffffffffffffffffffffffffffff167f8be0079c531659141344cd1fd0a4f28419497f9722a3daafe3b4186f6b6457e060405160405180910390a3806000806101000a81548173ffffffffffffffffffffffffffffffffffffffff021916908373ffffffffffffffffffffffffffffffffffffffff16021790555050565b6000428260020160049054906101000a900463ffffffff1663ffffffff1611159050919050565b60035442018160020160046101000a81548163ffffffff021916908363ffffffff16021790555050565b600080828401905083811015151561147457fe5b8091505092915050565b828054600181600116156101000203166002900490600052602060002090601f016020900481019282601f106114bf57805160ff19168380011785556114ed565b828001600101855582156114ed579182015b828111156114ec5782518255916020019190600101906114d1565b5b5090506114fa919061157e565b5090565b828054600181600116156101000203166002900490600052602060002090601f016020900481019282601f1061153f57805160ff191683800117855561156d565b8280016001018555821561156d579182015b8281111561156c578251825591602001919060010190611551565b5b50905061157a919061157e565b5090565b6115a091905b8082111561159c576000816000905550600101611584565b5090565b905600a165627a7a72305820b3f8c1f6bda7a5ce106b5f2ac56af5804bcb116d3e357fe2c6bc12fb6a11e7310029",
  "source": "pragma solidity ^0.4.25;\r\n\r\nimport \"./zombiefactory.sol\";\r\n\r\ncontract KittyInterface {\r\n  function getKitty(uint256 _id) external view returns (\r\n    bool isGestating,\r\n    bool isReady,\r\n    uint256 cooldownIndex,\r\n    uint256 nextActionAt,\r\n    uint256 siringWithId,\r\n    uint256 birthTime,\r\n    uint256 matronId,\r\n    uint256 sireId,\r\n    uint256 generation,\r\n    uint256 genes\r\n  );\r\n}\r\n\r\ncontract ZombieFeeding is ZombieFactory {\r\n\r\n  KittyInterface kittyContract;\r\n\r\n  modifier onlyOwnerOf(uint _zombieId) {\r\n    require(msg.sender == zombieToOwner[_zombieId]);\r\n    _;\r\n  }\r\n\r\n  function setKittyContractAddress(address _address) external onlyOwner {\r\n    kittyContract = KittyInterface(_address);\r\n  }\r\n\r\n  function _triggerCooldown(Zombie storage _zombie) internal {\r\n    _zombie.readyTime = uint32(now + cooldownTime);\r\n  }\r\n\r\n  function _isReady(Zombie storage _zombie) internal view returns (bool) {\r\n      return (_zombie.readyTime <= now);\r\n  }\r\n\r\n  function feedAndMultiply(uint _zombieId, uint _targetDna, string _species) internal onlyOwnerOf(_zombieId) {\r\n    Zombie storage myZombie = zombies[_zombieId];\r\n    require(_isReady(myZombie));\r\n    _targetDna = _targetDna % dnaModulus;\r\n    uint newDna = (myZombie.dna + _targetDna) / 2;\r\n    if (keccak256(abi.encodePacked(_species)) == keccak256(abi.encodePacked(\"kitty\"))) {\r\n      newDna = newDna - newDna % 100 + 99;\r\n    }\r\n    _createZombie(\"NoName\", newDna);\r\n    _triggerCooldown(myZombie);\r\n  }\r\n\r\n  function feedOnKitty(uint _zombieId, uint _kittyId) public {\r\n    uint kittyDna;\r\n    (,,,,,,,,,kittyDna) = kittyContract.getKitty(_kittyId);\r\n    feedAndMultiply(_zombieId, kittyDna, \"kitty\");\r\n  }\r\n}\r\n",
  "sourcePath": "C:\\Users\\ASHOK\\Desktop\\dapp\\contracts\\zombiefeeding.sol",
  "compiler": {
    "name": "solc",
    "version": "0.4.25+commit.59dbf8f1.Emscripten.clang"
  },
  "schemaVersion": "3.4.4",
  "updatedAt": "2026-03-16T05:46:58.119Z",
  "devdoc": {
    "methods": {
      "isOwner()": {
        "return": "true if `msg.sender` is the owner of the contract.\r"
      },
      "owner()": {
        "return": "the address of the owner.\r"
      },
      "renounceOwnership()": {
        "details": "Allows the current owner to relinquish control of the contract.\r"
      },
      "transferOwnership(address)": {
        "details": "Allows the current owner to transfer control of the contract to a newOwner.\r",
        "params": {
          "newOwner": "The address to transfer ownership to.\r"
        }
      }
    }
  },
  "userdoc": {
    "methods": {
      "renounceOwnership()": {
        "notice": "Renouncing to ownership will leave the contract without an owner.\r It will not be possible to call the functions with the `onlyOwner`\r modifier anymore.\r"
      }
    }
  }
}